:100000000C942A000C9434000C9434000C943400AA
:100010000C9434000C9434000C9434000C94340090
:100020000C9434000C9434000C9434000C94340080
:100030000C9434000C9434000C9434000C94340070
:100040000C9434000C9434000C9434000C94340060
:100050000C94340011241FBECFE5D8E0DEBFCDBF25
:100060000E94ED010C9418020C9400008830910558
:1000700008F0C0C06430710508F0BFC043305105BE
:1000800008F0BEC081309105A9F140F082309105A1
:1000900009F458C0039709F481C0B5C04115510552
:1000A00051F42AB381E090E001C0880F6A95EAF725
:1000B000822B8ABBA8C04130510569F48AB301C0C4
:1000C000440F6A95EAF7942F909589238ABB8BB3E6
:1000D000482B4BBB98C02AB381E090E001C0880F49
:1000E0006A95EAF78095922F98239ABB9BB3892350
:1000F0008BBB89C04115510541F427B301C0880F5E
:100100006A95EAF7822B87BB7EC04130510569F4BE
:1001100087B301C0440F6A95EAF7942F909589231D
:1001200087BB88B3482B48BB6EC027B301C0880F7C
:100130006A95EAF78095922F982397BB98B3892305
:1001400088BB61C04115510551F424B381E090E0B2
:1001500001C0880F6A95EAF7822B84BB54C04130F6
:10016000510569F484B301C0440F6A95EAF7942FEE
:100170009095892384BB85B3482B45BB44C024B3E9
:1001800081E090E001C0880F6A95EAF78095922F90
:10019000982394BB95B3892385BB35C04115510580
:1001A00051F421B381E090E001C0880F6A95EAF72D
:1001B000822B81BB28C04130510569F481B301C055
:1001C000440F6A95EAF7942F9095892381BB82B3F7
:1001D000482B42BB18C021B381E090E001C0880FDA
:1001E0006A95EAF78095922F982391BB92B3892361
:1001F00082BB09C082E090E0089583E090E008951A
:1002000081E090E0089580E090E0089584309105C9
:10021000C0F46F3F710519F061157105A9F48230C2
:10022000910549F08330910541F0019711F06ABBC7
:1002300005C067BB03C064BB01C061BB80E090E048
:10024000089583E090E0089581E090E0089588307B
:10025000910508F069C06430710508F068C042304B
:10026000510508F067C081309105F1F038F0823017
:10027000910571F1039709F441C05FC04130510508
:1002800041F48BB301C0440F6A95EAF7482B4BBB8E
:1002900054C02BB381E090E001C0880F6A95EAF763
:1002A000809582238BBB49C04130510541F488B30E
:1002B00001C0440F6A95EAF7482B48BB3EC028B3FB
:1002C00001C0880F6A95EAF78095822388BB35C004
:1002D0004130510541F485B301C0440F6A95EAF7F6
:1002E000482B45BB2AC025B381E090E001C0880FB0
:1002F0006A95EAF78095822385BB1FC0413051057E
:1003000041F482B301C0440F6A95EAF7482B42BB1F
:1003100014C022B381E090E001C0880F6A95EAF72B
:100320008095822382BB09C082E090E0089583E03B
:1003300090E0089581E090E0089580E090E00895D5
:1003400084309105B0F46F3F710509F0A8F4823054
:10035000910549F08330910541F0019711F06BBB95
:1003600005C068BB03C065BB01C062BB80E090E014
:10037000089582E090E0089581E090E00895FA0108
:1003800088309105F0F464307105F0F43097F9F09D
:100390008130910551F038F08230910541F003979A
:1003A000C9F480B305C089B303C086B301C083B369
:1003B00090E002C0959587956A95E2F781708083F9
:1003C00009C082E090E0089583E090E0089584E021
:1003D00090E0089580E090E0089540E050E060E013
:1003E00070E080E090E00E94360041E050E060E084
:1003F00070E080E090E00E9427012FEF89E698E10D
:10040000215080409040E1F700C0000040E050E003
:1004100060E070E080E090E00E9427012FEF89E625
:1004200098E1215080409040E1F700C00000DDCF0E
:04043000F894FFCF6E
:00000001FF
